{
  "_format": "hh-sol-artifact-1",
  "contractName": "GemJoin",
  "sourceName": "contracts/GemJoin.sol",
  "abi": [
    {
      "inputs": [
        {
          "internalType": "address",
          "name": "vat_",
          "type": "address"
        },
        {
          "internalType": "bytes32",
          "name": "ilk_",
          "type": "bytes32"
        },
        {
          "internalType": "address",
          "name": "gem_",
          "type": "address"
        }
      ],
      "stateMutability": "nonpayable",
      "type": "constructor"
    },
    {
      "anonymous": false,
      "inputs": [],
      "name": "Cage",
      "type": "event"
    },
    {
      "anonymous": false,
      "inputs": [
        {
          "indexed": true,
          "internalType": "address",
          "name": "usr",
          "type": "address"
        }
      ],
      "name": "Deny",
      "type": "event"
    },
    {
      "anonymous": false,
      "inputs": [
        {
          "indexed": true,
          "internalType": "address",
          "name": "usr",
          "type": "address"
        },
        {
          "indexed": false,
          "internalType": "uint256",
          "name": "wad",
          "type": "uint256"
        }
      ],
      "name": "Exit",
      "type": "event"
    },
    {
      "anonymous": false,
      "inputs": [
        {
          "indexed": true,
          "internalType": "address",
          "name": "usr",
          "type": "address"
        },
        {
          "indexed": false,
          "internalType": "uint256",
          "name": "wad",
          "type": "uint256"
        }
      ],
      "name": "Join",
      "type": "event"
    },
    {
      "anonymous": false,
      "inputs": [
        {
          "indexed": true,
          "internalType": "address",
          "name": "usr",
          "type": "address"
        }
      ],
      "name": "Rely",
      "type": "event"
    },
    {
      "inputs": [],
      "name": "cage",
      "outputs": [],
      "stateMutability": "nonpayable",
      "type": "function"
    },
    {
      "inputs": [],
      "name": "dec",
      "outputs": [
        {
          "internalType": "uint256",
          "name": "",
          "type": "uint256"
        }
      ],
      "stateMutability": "view",
      "type": "function"
    },
    {
      "inputs": [
        {
          "internalType": "address",
          "name": "usr",
          "type": "address"
        }
      ],
      "name": "deny",
      "outputs": [],
      "stateMutability": "nonpayable",
      "type": "function"
    },
    {
      "inputs": [
        {
          "internalType": "address",
          "name": "usr",
          "type": "address"
        },
        {
          "internalType": "uint256",
          "name": "wad",
          "type": "uint256"
        }
      ],
      "name": "exit",
      "outputs": [],
      "stateMutability": "nonpayable",
      "type": "function"
    },
    {
      "inputs": [],
      "name": "gem",
      "outputs": [
        {
          "internalType": "contract GemLike",
          "name": "",
          "type": "address"
        }
      ],
      "stateMutability": "view",
      "type": "function"
    },
    {
      "inputs": [],
      "name": "ilk",
      "outputs": [
        {
          "internalType": "bytes32",
          "name": "",
          "type": "bytes32"
        }
      ],
      "stateMutability": "view",
      "type": "function"
    },
    {
      "inputs": [
        {
          "internalType": "address",
          "name": "usr",
          "type": "address"
        },
        {
          "internalType": "uint256",
          "name": "wad",
          "type": "uint256"
        }
      ],
      "name": "join",
      "outputs": [],
      "stateMutability": "nonpayable",
      "type": "function"
    },
    {
      "inputs": [],
      "name": "live",
      "outputs": [
        {
          "internalType": "uint256",
          "name": "",
          "type": "uint256"
        }
      ],
      "stateMutability": "view",
      "type": "function"
    },
    {
      "inputs": [
        {
          "internalType": "address",
          "name": "usr",
          "type": "address"
        }
      ],
      "name": "rely",
      "outputs": [],
      "stateMutability": "nonpayable",
      "type": "function"
    },
    {
      "inputs": [],
      "name": "vat",
      "outputs": [
        {
          "internalType": "contract VatLike",
          "name": "",
          "type": "address"
        }
      ],
      "stateMutability": "view",
      "type": "function"
    },
    {
      "inputs": [
        {
          "internalType": "address",
          "name": "",
          "type": "address"
        }
      ],
      "name": "wards",
      "outputs": [
        {
          "internalType": "uint256",
          "name": "",
          "type": "uint256"
        }
      ],
      "stateMutability": "view",
      "type": "function"
    }
  ],
  "bytecode": "0x6101006040523480156200001257600080fd5b50604051620013533803806200135383398181016040528101906200003891906200025f565b60016000803373ffffffffffffffffffffffffffffffffffffffff1673ffffffffffffffffffffffffffffffffffffffff16815260200190815260200160002081905550600180819055508273ffffffffffffffffffffffffffffffffffffffff1660808173ffffffffffffffffffffffffffffffffffffffff16815250508160a081815250508073ffffffffffffffffffffffffffffffffffffffff1660c08173ffffffffffffffffffffffffffffffffffffffff168152505060c05173ffffffffffffffffffffffffffffffffffffffff1663313ce5676040518163ffffffff1660e01b8152600401602060405180830381865afa15801562000141573d6000803e3d6000fd5b505050506040513d601f19601f82011682018060405250810190620001679190620002f6565b60e081815250503373ffffffffffffffffffffffffffffffffffffffff167fdd0e34038ac38b2a1ce960229778ac48a8719bc900b6c4f8d0475c6e8b385a6060405160405180910390a250505062000328565b600080fd5b600073ffffffffffffffffffffffffffffffffffffffff82169050919050565b6000620001ec82620001bf565b9050919050565b620001fe81620001df565b81146200020a57600080fd5b50565b6000815190506200021e81620001f3565b92915050565b6000819050919050565b620002398162000224565b81146200024557600080fd5b50565b60008151905062000259816200022e565b92915050565b6000806000606084860312156200027b576200027a620001ba565b5b60006200028b868287016200020d565b93505060206200029e8682870162000248565b9250506040620002b1868287016200020d565b9150509250925092565b6000819050919050565b620002d081620002bb565b8114620002dc57600080fd5b50565b600081519050620002f081620002c5565b92915050565b6000602082840312156200030f576200030e620001ba565b5b60006200031f84828501620002df565b91505092915050565b60805160a05160c05160e051610fc76200038c600039600061077301526000818161034b0152818161063e01526108ee0152600081816102d8015281816107af01526108720152600081816101f00152818161029c01526108360152610fc76000f3fe608060405234801561001057600080fd5b50600436106100a95760003560e01c8063957aa58c11610071578063957aa58c1461012c5780639c52a7f11461014a578063b3bcfa8214610166578063bf353dbb14610184578063c5ce281e146101b4578063ef693bed146101d2576100a9565b806336569e77146100ae5780633b4da69f146100cc57806365fae35e146100e857806369245009146101045780637bd2bea71461010e575b600080fd5b6100b66101ee565b6040516100c39190610a9a565b60405180910390f35b6100e660048036038101906100e19190610b2e565b610212565b005b61010260048036038101906100fd9190610b6e565b61047a565b005b61010c610585565b005b61011661063c565b6040516101239190610bbc565b60405180910390f35b610134610660565b6040516101419190610be6565b60405180910390f35b610164600480360381019061015f9190610b6e565b610666565b005b61016e610771565b60405161017b9190610be6565b60405180910390f35b61019e60048036038101906101999190610b6e565b610795565b6040516101ab9190610be6565b60405180910390f35b6101bc6107ad565b6040516101c99190610c1a565b60405180910390f35b6101ec60048036038101906101e79190610b2e565b6107d1565b005b7f000000000000000000000000000000000000000000000000000000000000000081565b6001805414610256576040517f08c379a000000000000000000000000000000000000000000000000000000000815260040161024d90610c92565b60405180910390fd5b600081121561029a576040517f08c379a000000000000000000000000000000000000000000000000000000000815260040161029190610cfe565b60405180910390fd5b7f000000000000000000000000000000000000000000000000000000000000000073ffffffffffffffffffffffffffffffffffffffff16637cdd3fde7f000000000000000000000000000000000000000000000000000000000000000084846040518463ffffffff1660e01b815260040161031793929190610d46565b600060405180830381600087803b15801561033157600080fd5b505af1158015610345573d6000803e3d6000fd5b505050507f000000000000000000000000000000000000000000000000000000000000000073ffffffffffffffffffffffffffffffffffffffff166323b872dd3330846040518463ffffffff1660e01b81526004016103a693929190610d7d565b6020604051808303816000875af11580156103c5573d6000803e3d6000fd5b505050506040513d601f19601f820116820180604052508101906103e99190610dec565b610428576040517f08c379a000000000000000000000000000000000000000000000000000000000815260040161041f90610e65565b60405180910390fd5b8173ffffffffffffffffffffffffffffffffffffffff167fb4e09949657f21548b58afe74e7b86cd2295da5ff1598ae1e5faecb1cf19ca958260405161046e9190610be6565b60405180910390a25050565b60016000803373ffffffffffffffffffffffffffffffffffffffff1673ffffffffffffffffffffffffffffffffffffffff16815260200190815260200160002054146104fb576040517f08c379a00000000000000000000000000000000000000000000000000000000081526004016104f290610ed1565b60405180910390fd5b60016000808373ffffffffffffffffffffffffffffffffffffffff1673ffffffffffffffffffffffffffffffffffffffff168152602001908152602001600020819055508073ffffffffffffffffffffffffffffffffffffffff167fdd0e34038ac38b2a1ce960229778ac48a8719bc900b6c4f8d0475c6e8b385a6060405160405180910390a250565b60016000803373ffffffffffffffffffffffffffffffffffffffff1673ffffffffffffffffffffffffffffffffffffffff1681526020019081526020016000205414610606576040517f08c379a00000000000000000000000000000000000000000000000000000000081526004016105fd90610ed1565b60405180910390fd5b60006001819055507f2308ed18a14e800c39b86eb6ea43270105955ca385b603b64eca89f98ae8fbda60405160405180910390a1565b7f000000000000000000000000000000000000000000000000000000000000000081565b60015481565b60016000803373ffffffffffffffffffffffffffffffffffffffff1673ffffffffffffffffffffffffffffffffffffffff16815260200190815260200160002054146106e7576040517f08c379a00000000000000000000000000000000000000000000000000000000081526004016106de90610ed1565b60405180910390fd5b60008060008373ffffffffffffffffffffffffffffffffffffffff1673ffffffffffffffffffffffffffffffffffffffff168152602001908152602001600020819055508073ffffffffffffffffffffffffffffffffffffffff167f184450df2e323acec0ed3b5c7531b81f9b4cdef7914dfd4c0a4317416bb5251b60405160405180910390a250565b7f000000000000000000000000000000000000000000000000000000000000000081565b60006020528060005260406000206000915090505481565b7f000000000000000000000000000000000000000000000000000000000000000081565b7f8000000000000000000000000000000000000000000000000000000000000000811115610834576040517f08c379a000000000000000000000000000000000000000000000000000000000815260040161082b90610cfe565b60405180910390fd5b7f000000000000000000000000000000000000000000000000000000000000000073ffffffffffffffffffffffffffffffffffffffff16637cdd3fde7f0000000000000000000000000000000000000000000000000000000000000000338461089c90610f20565b6040518463ffffffff1660e01b81526004016108ba93929190610d46565b600060405180830381600087803b1580156108d457600080fd5b505af11580156108e8573d6000803e3d6000fd5b505050507f000000000000000000000000000000000000000000000000000000000000000073ffffffffffffffffffffffffffffffffffffffff1663a9059cbb83836040518363ffffffff1660e01b8152600401610947929190610f68565b6020604051808303816000875af1158015610966573d6000803e3d6000fd5b505050506040513d601f19601f8201168201806040525081019061098a9190610dec565b6109c9576040517f08c379a00000000000000000000000000000000000000000000000000000000081526004016109c090610e65565b60405180910390fd5b8173ffffffffffffffffffffffffffffffffffffffff167f22d324652c93739755cf4581508b60875ebdd78c20c0cff5cf8e23452b29963182604051610a0f9190610be6565b60405180910390a25050565b600073ffffffffffffffffffffffffffffffffffffffff82169050919050565b6000819050919050565b6000610a60610a5b610a5684610a1b565b610a3b565b610a1b565b9050919050565b6000610a7282610a45565b9050919050565b6000610a8482610a67565b9050919050565b610a9481610a79565b82525050565b6000602082019050610aaf6000830184610a8b565b92915050565b600080fd5b6000610ac582610a1b565b9050919050565b610ad581610aba565b8114610ae057600080fd5b50565b600081359050610af281610acc565b92915050565b6000819050919050565b610b0b81610af8565b8114610b1657600080fd5b50565b600081359050610b2881610b02565b92915050565b60008060408385031215610b4557610b44610ab5565b5b6000610b5385828601610ae3565b9250506020610b6485828601610b19565b9150509250929050565b600060208284031215610b8457610b83610ab5565b5b6000610b9284828501610ae3565b91505092915050565b6000610ba682610a67565b9050919050565b610bb681610b9b565b82525050565b6000602082019050610bd16000830184610bad565b92915050565b610be081610af8565b82525050565b6000602082019050610bfb6000830184610bd7565b92915050565b6000819050919050565b610c1481610c01565b82525050565b6000602082019050610c2f6000830184610c0b565b92915050565b600082825260208201905092915050565b7f47656d4a6f696e2f6e6f742d6c69766500000000000000000000000000000000600082015250565b6000610c7c601083610c35565b9150610c8782610c46565b602082019050919050565b60006020820190508181036000830152610cab81610c6f565b9050919050565b7f47656d4a6f696e2f6f766572666c6f7700000000000000000000000000000000600082015250565b6000610ce8601083610c35565b9150610cf382610cb2565b602082019050919050565b60006020820190508181036000830152610d1781610cdb565b9050919050565b610d2781610aba565b82525050565b6000819050919050565b610d4081610d2d565b82525050565b6000606082019050610d5b6000830186610c0b565b610d686020830185610d1e565b610d756040830184610d37565b949350505050565b6000606082019050610d926000830186610d1e565b610d9f6020830185610d1e565b610dac6040830184610bd7565b949350505050565b60008115159050919050565b610dc981610db4565b8114610dd457600080fd5b50565b600081519050610de681610dc0565b92915050565b600060208284031215610e0257610e01610ab5565b5b6000610e1084828501610dd7565b91505092915050565b7f47656d4a6f696e2f6661696c65642d7472616e73666572000000000000000000600082015250565b6000610e4f601783610c35565b9150610e5a82610e19565b602082019050919050565b60006020820190508181036000830152610e7e81610e42565b9050919050565b7f47656d4a6f696e2f6e6f742d617574686f72697a656400000000000000000000600082015250565b6000610ebb601683610c35565b9150610ec682610e85565b602082019050919050565b60006020820190508181036000830152610eea81610eae565b9050919050565b7f4e487b7100000000000000000000000000000000000000000000000000000000600052601160045260246000fd5b6000610f2b82610d2d565b91507f80000000000000000000000000000000000000000000000000000000000000008203610f5d57610f5c610ef1565b5b816000039050919050565b6000604082019050610f7d6000830185610d1e565b610f8a6020830184610bd7565b939250505056fea2646970667358221220c6f10fa04b69b7448d0358524562575fd6248ff7e248c3aad47bdca2d4358d7c64736f6c634300080d0033",
  "linkReferences": {},
  "deployedLinkReferences": {}
}